:020000040800F2
:1000000000000120E5B4010859B5010859B50108FF
:1000100059B5010859B5010859B50108000000009B
:1000200000000000000000000000000059B50108B9
:1000300059B5010800000000ED00000859B501089D
:1000400010B5054C237833B9044B13B10448AFF312
:1000500000800123237010BDB806002000000000BE
:10006000E8D5010808B5034B1BB103490348AFF3BA
:10007000008008BD00000000BC060020E8D5010893
:1000800072B634483449026841EA020101603348DB
:100090004FF00101016032484168016001688A88BF
:1000A0004FF0100342EA03028A80D1F800C00CF13D
:1000B000240C0CF1040CBCE8FF008CF309884FF011
:1000C000020C8CF31488AE4662B63047EFF3108012
:1000D00072B67047EFF3108062B6704780F31088F5
:1000E000704720484FF0805101607047EFF3108C4B
:1000F00072B61D4A126822B12DE900509047BDE842
:100100000050EFF309801EF0100F08BF20ED108B98
:1001100040F804ED20E9F01F114D4FF010082E6853
:100120003060B78827EA0807B78068682860878842
:1001300047EA080787800168B1E8F01F51F804EB2F
:100140001EF0100F08BFB1EC108B81F309888CF3FF
:100150001088704720ED00E00000FFFFCC17002062
:10016000C417002004ED00E05C0B0020000000003C
:1001700001F0FF01102A2BDB10F0070F08D010F858
:10018000013B013A8B422DD010F0070F42B3F6D15C
:10019000F0B441EA012141EA014122F007047FF075
:1001A00000070023F0E80256083C85EA010586EACC
:1001B000010685FA47F5A3FA87F586FA47F6A5FA08
:1001C00087F68EB9EED1F0BC01F0FF0102F0070214
:1001D00032B110F8013B013A83EA010313B1F8D1BF
:1001E0000020704701387047002D06BF35460338A0
:1001F000073815F0010F07D1013015F4807F02BFD9
:10020000013015F4C03F0130F0BC0138704700BF29
:10021000034613F8012B002AFBD1181A0138704746
:1002200081F0004102E000BF83F0004330B54FEAA7
:1002300041044FEA430594EA050F08BF90EA020F14
:100240001FBF54EA000C55EA020C7FEA645C7FEAA7
:10025000655C00F0E2804FEA5454D4EB5555B8BFCA
:100260006D420CDD2C4480EA020281EA030382EA3B
:10027000000083EA010180EA020281EA0303362DCD
:1002800088BF30BD11F0004F4FEA01314FF4801CA0
:100290004CEA113102D0404261EB410113F0004FB2
:1002A0004FEA03334CEA133302D0524263EB430369
:1002B00094EA050F00F0A780A4F10104D5F1200E07
:1002C0000DDB02FA0EFC22FA05F2801841F1000162
:1002D00003FA0EF2801843FA05F359410EE0A5F136
:1002E00020050EF1200E012A03FA0EFC28BF4CF067
:1002F000020C43FA05F3C01851EBE37101F000451D
:1003000007D54FF0000EDCF1000C7EEB00006EEB29
:100310000101B1F5801F1BD3B1F5001F0CD34908B3
:100320005FEA30004FEA3C0C04F101044FEA44520A
:1003300012F5800F80F09A80BCF1004F08BF5FEA91
:10034000500C50F1000041EB045141EA050130BD71
:100350005FEA4C0C404141EB010111F4801FA4F114
:100360000104E9D191F0000F04BF01460020B1FA69
:1003700081F308BF2033A3F10B03B3F120020CDAA1
:100380000C3208DD02F1140CC2F10C0201FA0CF07F
:1003900021FA02F10CE002F11402D8BFC2F1200CE4
:1003A00001FA02F120FA0CFCDCBF41EA0C0190409A
:1003B000E41AA2BF01EB0451294330BD6FEA0404E3
:1003C0001F3C1CDA0C340EDC04F11404C4F12002CE
:1003D00020FA04F001FA02F340EA030021FA04F3E0
:1003E00045EA030130BDC4F10C04C4F1200220FA37
:1003F00002F001FA04F340EA0300294630BD21FA75
:1004000004F0294630BD94F0000F83F4801306BF3A
:1004100081F480110134013D4EE77FEA645C18BF2E
:100420007FEA655C29D094EA050F08BF90EA020FC5
:1004300005D054EA000C04BF1946104630BD91EABD
:10044000030F1EBF0021002030BD5FEA545C05D1C0
:100450004000494128BF41F0004130BD14F58004FF
:100460003CBF01F5801130BD01F0004545F0FE4173
:1004700041F470014FF0000030BD7FEA645C1ABFA8
:10048000194610467FEA655C1CBF0B46024650EADF
:10049000013406BF52EA033591EA030F41F400210B
:1004A00030BD00BF90F0000F04BF0021704730B591
:1004B0004FF4806404F132044FF000054FF0000166
:1004C00050E700BF90F0000F04BF0021704730B527
:1004D0004FF4806404F1320410F0004548BF4042FC
:1004E0004FF000013EE700BF42004FEAE2014FEA51
:1004F00031014FEA02701FBF12F07F4393F07F4F2C
:1005000081F06051704732F07F4208BF704793F02E
:100510007F4F04BF41F40021704730B54FF4607441
:1005200001F0004521F000411CE700BF50EA010244
:1005300008BF704730B54FF000050AE050EA0102ED
:1005400008BF704730B511F0004502D5404261EB5D
:1005500041014FF4806404F132045FEA915C3FF49E
:10056000D8AE4FF003025FEADC0C18BF03325FEA3B
:10057000DC0C18BF033202EBDC02C2F1200300FAEC
:1005800003FC20FA02F001FA03FE40EA0E0021FA11
:1005900002F11444BDE600BF70B54FF0FF0C4CF4FF
:1005A000E06C1CEA11541DBF1CEA135594EA0C0FB1
:1005B00095EA0C0F00F0DEF82C4481EA030621EAEC
:1005C0004C5123EA4C5350EA013518BF52EA033527
:1005D00041F4801143F4801338D0A0FB02CE4FF0D9
:1005E0000005E1FB02E506F00042E0FB03E54FF009
:1005F0000006E1FB03569CF0000F18BF4EF0010E01
:10060000A4F1FF04B6F5007F64F5407404D25FEAFC
:100610004E0E6D4146EB060642EAC62141EA5551AF
:100620004FEAC52040EA5E504FEACE2EB4F1FD0CF1
:1006300088BFBCF5E06F1ED8BEF1004F08BF5FEA6F
:10064000500E50F1000041EB045170BD06F0004621
:1006500046EA010140EA020081EA0301B4EB5C04CE
:10066000C2BFD4EB0C0541EA045170BD41F48011C6
:100670004FF0000E013C00F3AB8014F1360FDEBFEB
:10068000002001F0004170BDC4F10004203C35DAC7
:100690000C341BDC04F11404C4F1200500FA05F34A
:1006A00020FA04F001FA05F240EA020001F00042EB
:1006B00021F0004110EBD37021FA04F642EB060161
:1006C0005EEA430E08BF20EAD37070BDC4F10C048B
:1006D000C4F1200500FA04F320FA05F001FA04F24F
:1006E00040EA020001F0004110EBD37041F100013B
:1006F0005EEA430E08BF20EAD37070BDC4F1200546
:1007000000FA05F24EEA020E20FA04F301FA05F2AD
:1007100043EA020321FA04F001F0004121FA04F255
:1007200020EA020000EBD3705EEA430E08BF20EA25
:10073000D37070BD94F0000F0FD101F0004640005F
:1007400041EB010111F4801F08BF013CF7D041EAE1
:10075000060195F0000F18BF704703F000465200E5
:1007600043EB030313F4801F08BF013DF7D043EAB6
:100770000603704794EA0C0F0CEA135518BF95EA6C
:100780000C0F0CD050EA410618BF52EA4306D1D1F3
:1007900081EA030101F000414FF0000070BD50EA12
:1007A000410606BF1046194652EA430619D094EA9C
:1007B0000C0F02D150EA013613D195EA0C0F05D186
:1007C00052EA03361CBF104619460AD181EA0301DA
:1007D00001F0004141F0FE4141F470014FF0000092
:1007E00070BD41F0FE4141F4780170BD70B54FF02D
:1007F000FF0C4CF4E06C1CEA11541DBF1CEA1355AD
:1008000094EA0C0F95EA0C0F00F0A7F8A4EB05048E
:1008100081EA030E52EA03354FEA013100F0888085
:100820004FEA03334FF0805545EA131343EA12634E
:100830004FEA022245EA111545EA10654FEA002603
:100840000EF000419D4208BF964244F1FD0404F5BC
:10085000407402D25B084FEA3202B61A65EB030518
:100860005B084FEA32024FF480104FF4002CB6EBD5
:10087000020E75EB030E22BFB61A754640EA0C0055
:100880005B084FEA3202B6EB020E75EB030E22BF95
:10089000B61A754640EA5C005B084FEA3202B6EBD6
:1008A000020E75EB030E22BFB61A754640EA9C0095
:1008B0005B084FEA3202B6EB020E75EB030E22BF65
:1008C000B61A754640EADC0055EA060E18D04FEA23
:1008D000051545EA16754FEA06164FEAC30343EAC3
:1008E00052734FEAC2025FEA1C1CC0D111F4801F90
:1008F0000BD141EA00014FF000004FF0004CB6E789
:1009000011F4801F04BF01430020B4F1FD0C88BF27
:10091000BCF5E06F3FF6AFAEB5EB030C04BFB6EB32
:10092000020C5FEA500C50F1000041EB045170BD25
:100930000EF0004E4EEA113114EB5C04C2BFD4EB52
:100940000C0541EA045170BD41F480114FF0000ED6
:10095000013C90E645EA060E8DE60CEA135594EA52
:100960000C0F08BF95EA0C0F3FF43BAF94EA0C0F55
:100970000AD150EA01347FF434AF95EA0C0F7FF4CA
:1009800025AF104619462CE795EA0C0F06D152EA1E
:1009900003353FF4FDAE1046194622E750EA410602
:1009A00018BF52EA43067FF4C5AE50EA41047FF413
:1009B0000DAF52EA43057FF4EBAE12E74FF0FF3C78
:1009C00006E000BF4FF0010C02E000BF4FF0010C49
:1009D0004DF804CD4FEA410C7FEA6C5C4FEA430CC2
:1009E00018BF7FEA6C5C1BD001B050EA410C0CBF11
:1009F00052EA430C91EA030F02BF90EA020F002073
:100A0000704710F1000F91EA030F58BF994208BFD9
:100A100090422CBFD8176FEAE37040F00100704796
:100A20004FEA410C7FEA6C5C02D150EA013C07D1ED
:100A30004FEA430C7FEA6C5CD6D152EA033CD3D038
:100A40005DF8040B704700BF8446104662468C4632
:100A50001946634600E000BF01B5FFF7B7FF002865
:100A600048BF10F1000F01BD4DF808EDFFF7F4FF8E
:100A70000CBF012000205DF808FB00BF4DF808ED19
:100A8000FFF7EAFF34BF012000205DF808FB00BF3C
:100A90004DF808EDFFF7E0FF94BF012000205DF85E
:100AA00008FB00BF4DF808EDFFF7CEFF94BF012013
:100AB00000205DF808FB00BF4DF808EDFFF7C4FF0C
:100AC00034BF012000205DF808FB00BF4FEA41025F
:100AD000B2F1E04324BFB3F5001CDCF1FE5C0DD99C
:100AE00001F0004C4FEAC0024CEA5070B2F1004FE6
:100AF00040EB830008BF20F00100704711F0804FE9
:100B000021D113F13872BCBF01F00040704741F4AD
:100B100080114FEA5252C2F11802C2F1200C10FAB1
:100B20000CF320FA02F018BF40F001004FEAC12395
:100B30004FEAD32303FA0CFC40EA0C0023FA02F339
:100B40004FEA4303CCE77FEA625307D150EA01330F
:100B50001EBF4FF0FE4040F44000704701F00040DF
:100B600040F0FE4040F40000704700BF7BB972B90E
:100B70000029BEBF00204FF0004106E008BF00285A
:100B80001CBF6FF000414FF0FF3000F0F7B9ADF13E
:100B9000080C6DE904CE002909DB002B1ADB00F0FC
:100BA00087F8DDF804E0DDE9022304B07047404235
:100BB00061EB4101002B1BDB00F07AF8DDF804E06B
:100BC000DDE9022304B0404261EB4101524263EB94
:100BD00043037047524263EB430300F069F8DDF8CA
:100BE00004E0DDE9022304B0404261EB41017047BB
:100BF000524263EB430300F05BF8DDF804E0DDE90B
:100C0000022304B0524263EB4303704753B94AB91D
:100C1000002908BF00281CBF4FF0FF314FF0FF3004
:100C200000F0ACB9ADF1080C6DE904CE00F040F86D
:100C3000DDF804E0DDE9022304B0704738B5002296
:100C4000002304460D46FFF719FF28B92046294620
:100C5000BDE8384000F00AB8204605F1004100F038
:100C600005F8404261EB410138BD00BFD0B500221C
:100C70000D4B06460F46FFF78FFC00F081F9044646
:100C8000FFF710FC0022094BFFF786FC02460B46DB
:100C900030463946FFF7C8FA00F072F900222346C1
:100CA00010431946D0BD00BF0000F03D0000F041E8
:100CB0002DE9F047089E04468846002B4BD18A4216
:100CC000154667D9B2FA82F24AB1C2F1200701FA99
:100CD00002F320FA07F7954047EA030894404FEAE9
:100CE000154E230CB8FBFEF71FFA85FC0EFB178888
:100CF00043EA084307FB0CF1994209D9EB1807F1C5
:100D0000FF3080F01B81994240F21881023F2B4452
:100D10005B1AA4B2B3FBFEF00EFB103344EA0344AB
:100D200000FB0CFCA44509D92C1900F1FF3380F01D
:100D30000781A44540F2048102382C4440EA074070
:100D4000A4EB0C0400271EB1D4400023C6E90043E5
:100D50003946BDE8F0878B4209D9002E00F0EB80C0
:100D60000027C6E9000138463946BDE8F087B3FAE6
:100D700083F7002F47D18B4202D3824200F2FA80E0
:100D8000841A61EB030301209846002EE0D0C6E9E7
:100D90000048DDE702B9FFDEB2FA82F2002A40F035
:100DA0008F80491B4FEA154E1FFA85F80127B1FBCA
:100DB000FEFC230C0EFB1C1143EA014308FB0CF163
:100DC000994207D9EB180CF1FF3002D2994200F298
:100DD000CD808446591AA3B2B1FBFEF00EFB10146D
:100DE00043EA044408FB00F8A04507D92C1900F198
:100DF000FF3302D2A04500F2B6801846A4EB0804E7
:100E000040EA0C409FE7C7F1200CBB4022FA0CFEE1
:100E10004EEA030E01FA07F420FA0CF521FA0CF35E
:100E20004FEA1E482543B3FBF8F92C0C08FB193395
:100E30001FFA8EFA44EA034309FB0AF49C4202FAC1
:100E400007F200FA07F10BD91EEB030309F1FF309B
:100E500080F087809C4240F28480A9F102097344AB
:100E60001B1BADB2B3FBF8F008FB103345EA03449B
:100E700000FB0AFAA24508D91EEB040400F1FF3377
:100E80006BD2A24569D90238744440EA0940A0FBFC
:100E90000289A4EB0A044C45C2464B4654D351D0B8
:100EA000002E69D0B1EB0A0564EB030404FA0CFCD4
:100EB000FD40FC404CEA0505C6E90054002747E721
:100EC000C2F1200320FA03F7954001FA02F021FA5B
:100ED00003F34FEA154E3843010CB3FBFEF71FFA3C
:100EE00085F80EFB173341EA034107FB08F38B42F9
:100EF00004FA02F407D9691807F1FF3C2FD28B429C
:100F00002DD9023F2944CB1A81B2B3FBFEF00EFB70
:100F1000103341EA034100FB08F38B4207D96918FB
:100F200000F1FF3C17D28B4215D902382944C91A67
:100F300040EA07473BE73746304609E70746E7E61A
:100F40001846FBE64145ABD2B8EB020A69EB0E024C
:100F500001381346A4E76046E9E7184695E7674677
:100F6000D1E781467CE702382C4447E7ACF1020C1C
:100F70002B442FE7384608E73746E9E6704700BFBD
:100F80004A0011D212F5001211D20DD56FF4787308
:100F9000B3EB62520ED44FEAC12343F0004343EA5D
:100FA000505323FA02F070474FF00000704750EAA8
:100FB000013002D14FF0FF3070474FF00000704712
:100FC00030B583B00546204B9B6D13F0805F0BD08E
:100FD00000F078FCB0F5007F17D0802D1FD82DD001
:100FE000702D2DD000211BE0174CA36D43F08053D2
:100FF000A365A36D03F080530193019B00F062FC95
:10100000A36D23F08053A365E4E7802D03D9A02DC1
:1010100003D9022104E0002102E0012100E00321C4
:101020000A4A136823F007030B431360136803F0A5
:1010300007038B4206D0012003B030BD0221EFE749
:101040000121EDE70020F7E70010024000200240F8
:101050003B4B9B6813F00C0F1AD0394B9B6803F085
:101060000C030C2B0ED0364B9B6803F00C03042BA7
:101070002FD0334B9B6803F00C03082B2CD000209F
:10108000014618E02E4BDB6803F00303012BEAD185
:101090002B4B1B6813F0080F14D1294BD3F8943055
:1010A000C3F30323274A52F82310254B9B6813F000
:1010B0000C0F0CD00020224A936803F00C030C2B79
:1010C0000DD070471E4B1B68C3F30313EAE70846B5
:1010D000F1E71D480021EEE71C480021EBE713462D
:1010E000D26802F00302DB68C3F302130133022A61
:1010F0000AD0032A1AD0B1FBF3F3114AD068C0F327
:10110000062000FB03F008E00F48B0FBF3F30C4AA5
:10111000D068C0F3062000FB03F0094BDB68C3F383
:10112000416301335B00B0FBF3F0CAE70748B0FB53
:10113000F3F3034AD068C0F3062000FB03F0ECE7AA
:1011400000100240206902080024F40000127A0016
:10115000002800F0D78270B582B00446036813F00F
:10116000100F3FD0974B9B6813F00C0F40F092800C
:10117000944B1B6813F0020F03D08369002B00F01F
:10118000C382206A8F4B1B6813F0080F62D08D4B0F
:101190001B6803F0F003984263D9FFF711FF0028A2
:1011A00040F0B482874B1A6842F008021A601A684D
:1011B00022F0F002216A0A431A605A6822F47F4240
:1011C000E16942EA01225A60FFF742FF7D4B9B68CA
:1011D000C3F303137C4AD35CD8407C4B18600020D7
:1011E00001F096FA236813F0010F00F0A180754B0F
:1011F0009B6803F00C03082B00F09180714B9B68F7
:1012000003F00C030C2B00F083806368B3F5803F80
:1012100000F0B580B3F5A02F00F0B780694B1A68D5
:1012200022F480321A601A6822F480221A606368FD
:10123000002B00F0B78016F07EFF0546614B1B685F
:1012400013F4003F74D116F076FF401B6428F5D9E3
:10125000032062E25B4BD3F894301B0903F0F003E8
:1012600099E7584B1A6842F008021A601A6822F08F
:10127000F002216A0A431A605A6822F47F42E16947
:1012800042EA01225A60206AFFF79AFE00289BD0AA
:10129000012042E2836933B34A4A136843F00103F1
:1012A000136016F048FF0546464B1B6813F0020F0B
:1012B00006D116F040FF401B0228F5D903202CE28E
:1012C000404B1A6842F008021A601A6822F0F002D5
:1012D000216A0A431A605A6822F47F42E16942EAAD
:1012E00001225A607EE7374A136823F00103136036
:1012F00016F021FF0546334B1B6813F0020F3FF435
:1013000071AF16F018FF401B0228F4D9032004E245
:101310002C4BDB6803F00303032B7FF476AF294BE0
:101320001B6813F4003F03D06368002B00F0F081CA
:10133000236813F0020F62D0224B9B6803F00C036A
:10134000042B4BD01F4B9B6803F00C030C2B3FD09E
:10135000E368002B79D01B4A136843F48073136051
:1013600016F0E9FE0546174B1B6813F4806F63D136
:1013700016F0E1FE401B0228F5D90320CDE1114A09
:10138000136843F48033136051E703F18043A3F5FE
:101390003C331A6842F480221A601A6842F48032A0
:1013A0001A6044E716F0C7FE0546064B1B6813F4A7
:1013B000003FBDD016F0BFFE401B6428F5D90320C6
:1013C000ABE100BF0010024008690208440400209D
:1013D000B14BDB6803F00303022BB9D1AE4B1B68A2
:1013E00013F4806F03D0E368002B00F09381AA4AC6
:1013F000536823F0F853216943EA0163536023687B
:1014000013F0080F4CD063699BB3A34AD2F8943011
:1014100043F00103C2F8943016F08DFE05469E4B52
:10142000D3F8943013F0020F3AD116F084FE401B2B
:101430000228F4D9032070E1974A536823F0F85347
:10144000216943EA01635360D9E7934A136823F49F
:101450008073136016F06FFE05468F4B1B6813F404
:10146000806FCCD016F067FE401B0228F5D9032010
:1014700053E1894AD2F8943023F00103C2F8943042
:1014800016F059FE0546844BD3F8943013F0020F42
:1014900006D016F050FE401B0228F4D903203CE190
:1014A000236813F0040F7AD07B4B9B6D13F0805FA1
:1014B00036D1794B9A6D42F080529A659B6D03F05C
:1014C00080530193019B0125744B1B6813F4807FAB
:1014D00028D0A368012B39D0052B3FD06E4BD3F811
:1014E000902022F00102C3F89020D3F8902022F03F
:1014F0000402C3F89020A368002B3DD016F01BFE19
:101500000646654BD3F8903013F0020F46D116F023
:1015100012FE801B41F288339842F2D90320FCE08E
:101520000025D1E75D4A136843F48073136016F019
:1015300002FE0646594B1B6813F4807FC9D116F092
:10154000FAFD801B0228F5D90320E6E0524AD2F8C2
:10155000903043F00103C2F89030CCE74E4BD3F803
:10156000902042F00402C3F89020D3F8902042F07B
:101570000102C3F89020BEE716F0DDFD0646464B9B
:10158000D3F8903013F0020F08D016F0D4FD801B72
:1015900041F288339842F2D90320BEE0E5B92368CE
:1015A00013F0200F35D0636AE3B13B4AD2F898308C
:1015B00043F00103C2F8983016F0BDFD0546364BE6
:1015C000D3F8983013F0020F23D116F0B4FD401B6E
:1015D0000228F4D90320A0E02F4A936D23F0805312
:1015E0009365DCE72C4AD2F8983023F00103C2F867
:1015F000983016F0A0FD0546274BD3F8983013F02D
:10160000020F06D016F097FD401B0228F4D90320E4
:1016100083E0A36A002B7FD01F4A926802F00C027D
:101620000C2A7CD0022B23D01B4B1A6822F080722C
:101630001A601B6813F0006F04D1174AD36823F0B7
:101640000303D360144AD36823F0887323F48033F0
:10165000D36016F070FD04460F4B1B6813F0007F3B
:101660004ED016F068FD001B0228F5D9032054E087
:10167000094A136823F08073136016F05CFD054679
:10168000054B1B6813F0007F0AD016F054FD401B79
:101690000228F5D9032040E000100240007000400D
:1016A000236B5A1E636B1B0243EA0213E26A134365
:1016B000E26B5208013A43EA4253226C5208013A63
:1016C00043EA4263A26B43EAC263164AD3601368DB
:1016D00043F080731360D36843F08073D36016F0D7
:1016E0002AFD04460F4B1B6813F0007F06D116F04D
:1016F00022FD001B0228F5D903200EE000200CE09B
:1017000000200AE001207047012006E0012004E0EB
:10171000012002E0012000E0002002B070BD0120A5
:10172000FBE700BF00100240002800F0998070B570
:1017300004464D4B1B6803F007038B420CD24A4A08
:10174000136823F007030B431360136803F00703C8
:101750008B4201D0012070BD0D46236813F0010FAC
:1017600039D06368032B09D0022B26D063BB3F4AD4
:10177000126812F0020F06D10120ECE73B4A126812
:1017800012F0007F6ED039498A6822F003021343B9
:101790008B6016F0D0FC0646344B9B6803F00C03BC
:1017A0006268B3EB820F16D016F0C5FC801B41F2C5
:1017B00088339842F0D90320CDE72C4A126812F4FE
:1017C000003FE0D10120C6E7284A126812F4806F7A
:1017D000D9D10120BFE7236813F0020F06D0234AB6
:1017E000936823F0F003A1680B4393601E4B1B68C2
:1017F00003F00703AB420CD91B4A136823F007031D
:101800002B431360136803F00703AB4201D00120A0
:10181000A1E7236813F0040F06D0144A936823F459
:10182000E063E1680B439360236813F0080F07D06F
:101830000E4A936823F46053216943EAC10393601D
:10184000FFF706FC094B9B68C3F30313084AD35CFC
:10185000D840084B1860002000F05AFF00207AE7BB
:1018600001207047012076E700200240001002406E
:101870000869020844040020014B1868704700BF43
:101880004404002008B5FFF7F7FF044B9B68C3F33F
:101890000223034AD35CD84008BD00BF00100240B9
:1018A0001869020808B5FFF7E7FF044B9B68C3F30C
:1018B000C223034AD35CD84008BD00BF00100240D9
:1018C00018690208024B186800F4C060704700BF36
:1018D00000700040B0F5007F0FD0204B1B6803F470
:1018E000C063B3F5806F37D01C4A136823F4C0631C
:1018F00043F48063136000207047184B1B6803F4A7
:10190000C063B3F5007F25D0144A136823F4C06385
:1019100043F400731360124B1B6802F1467202F528
:101920005B3202F28322A2FB03239A0C322303FBD5
:1019300002F300E0013B23B1084A526912F4806FC0
:10194000F8D1064B5B6913F4806F01D1002070471A
:10195000032070470020704700207047007000404F
:1019600044040020024A136843F4807313607047F4
:1019700000700040F0B482B0002336E0042400E0A0
:101980000024B4403C4302355B4E46F825405B4C96
:101990002568D44304EA05064F6817F4803F01D058
:1019A00042EA0506554D2E606D6804EA05064F684B
:1019B00017F4003F01D042EA0506504D6E60AD6855
:1019C00004EA05064F6817F4801F01D042EA0506B5
:1019D0004A4DAE60ED682C404E6816F4001F01D0F1
:1019E00042EA0504454AD46001330A6832FA03F436
:1019F0007ED001249C402240F6D04D68022D01D0BB
:101A0000122D10D1DE08083650F826C003F0070565
:101A1000AF000F25BD402CEA050C0D69BD4045EA1D
:101A20000C0540F8265006685F000325BD40ED43D5
:101A300005EA060C4E6806F00306BE4046EA0C06B0
:101A400006604E6806F1FF3CBCF1010F03D9112E70
:101A500001D0122E10D1866805EA060CCE68BE4071
:101A600046EA0C068660466826EA04044E68C6F319
:101A700000169E4026434660C46825408C68BC40E2
:101A80002C43C4604C6814F0805FADD01C4C256EB4
:101A900045F001052566246E04F001040194019CC3
:101AA0009D08AE1C144C54F8267003F00304A600E5
:101AB0000F24B44027EA0407B0F1904F3FF460AF21
:101AC000104CA0420ED004F58064A0420CD004F566
:101AD0008064A0420AD004F58064A0423FF44EAF77
:101AE00007244EE701244CE702244AE7032448E791
:101AF00002B0F0BC704700BF00000140000401408C
:101B000000100240000400480AB9816270478161F8
:101B100070470000F8B5594BDB6813F0030F18D07D
:101B2000564BDB6803F003030268934202D00125A1
:101B30002846F8BD002A00F09F80504BDB68C3F3B5
:101B4000021301334268934201D00125F0E70025DA
:101B50001AE00368022B58D0032B5DD0012B01D073
:101B600001250FE0454A126812F0020F60D0434D84
:101B7000EA6822F073024468013C43EA0413134309
:101B8000EB600025002DD3D10F4604463B4A136875
:101B900023F08063136016F0CEFA0646374B1B68BD
:101BA00013F0006F05D016F0C6FA801B0228F5D995
:101BB0000325002DBCD1002F3CD130490B6923F007
:101BC000784323F4FE43A068E268D20642EA00228A
:101BD00013430B61294A136843F08063136016F0C6
:101BE000AAFA0646254B1B6813F0006F05D116F0C4
:101BF000A2FA801B0228F5D90325002D98D11F4A8F
:101C00001369A1690B43136192E71C4A126812F42D
:101C1000806FACD10125B5E7184A126812F4003F75
:101C2000A5D1164A126812F4802FA0D10125A9E788
:101C30000125A7E7012F0FD01048026922F0C062EA
:101C400022F4FE42A16863695B08013B5B0643EA3C
:101C5000012313430361BDE70848026922F4C0026F
:101C600022F4FE42A16823695B08013B5B0543EA5D
:101C7000012313430361ADE7012559E7001002403A
:101C80002DE9F04182B00446036813F4006F26D0BA
:101C9000436CB3F5000F06D0B3F5400F1DD09BB1D8
:101CA000012637461DE0BB4AD36843F48033D36036
:101CB0000027B84AD2F8883023F44003616C0B4304
:101CC000C2F8883000260CE000210430FFF722FF24
:101CD00007460028EDD0064603E00027E9E7002686
:101CE0003746236813F4003F6BD0AA4B9B6D13F06B
:101CF000805F4CD1A74B9A6D42F080529A659B6DE4
:101D000003F080530193019B4FF00108A24A13682E
:101D100043F48073136016F00EFA05469E4B1B6861
:101D200013F4807F05D116F006FA401B0228F5D97E
:101D30000327002F40D1974BD3F8903013F4407312
:101D400015D0A26D9A4212D0924AD2F8903023F464
:101D50004073D2F8901041F48031C2F89010D2F85C
:101D6000901021F48031C2F89010C2F8903013F036
:101D7000010F0FD1002F40F0E380864AD2F8903057
:101D800023F44073A16D0B43C2F8903015E04FF07F
:101D90000008BBE716F0CFF905467E4BD3F890302C
:101DA00013F0020FE6D116F0C6F9401B41F288335A
:101DB0009842F2D90327DDE73E46B8F1000F40F024
:101DC000C180236813F0010F08D0724AD2F888301E
:101DD00023F00303216A0B43C2F88830236813F011
:101DE000020F08D06B4AD2F8883023F00C03616AE6
:101DF0000B43C2F88830236813F0040F08D0654AFB
:101E0000D2F8883023F03003A16A0B43C2F888303F
:101E1000236813F0200F08D05E4AD2F8883023F4EC
:101E20004063E16A0B43C2F88830236813F4007FF3
:101E300008D0584AD2F8883023F44023E16B0B4392
:101E4000C2F88830236813F4806F08D0514AD2F862
:101E5000883023F44013216C0B43C2F88830236888
:101E600013F0400F08D04B4AD2F8883023F4405387
:101E7000216B0B43C2F88830236813F0800F08D021
:101E8000444AD2F8883023F44043616B0B43C2F8D4
:101E90008830236813F4807F08D03E4AD2F8883017
:101EA00023F44033A16B0B43C2F88830236813F44A
:101EB000002F0FD0374AD2F8883023F04063A16C4E
:101EC0000B43C2F88830A36CB3F1006F40D0B3F17C
:101ED000806F42D0236813F4802F0FD02D4AD2F8A0
:101EE000883023F04063E16C0B43C2F88830E36C28
:101EF000B3F1006F39D0B3F1806F3BD0236813F496
:101F0000804F0CD0234AD2F8883023F04053216D03
:101F10000B43C2F88830236DB3F1805F32D0236861
:101F200013F4004F08D01B4AD2F8883023F08043C6
:101F3000616D0B43C2F88830304602B0BDE8F081D5
:101F40003E463AE7134A936D23F08053936538E792
:101F5000D36843F48013D360BCE70121201DFFF751
:101F6000D9FD0028B6D00646B4E7D36843F4801301
:101F7000D360C3E70121201DFFF7CCFD0028BDD0B1
:101F80000646BBE70221201DFFF7C4FD0028C6D08E
:101F90000646C4E70010024000700040074AD368BC
:101FA00023F4E0631B041B0C000200F4E060184300
:101FB00040F0BF6040F40030D060704700ED00E0BA
:101FC00030B4174BDB68C3F30223C3F10704042CBE
:101FD00028BF04241D1D062D18D9033B4FF0FF35E3
:101FE00005FA04F421EA0401994005FA03F322EA10
:101FF0000303194300280BDB0901C9B200F160405B
:1020000000F5614080F8001330BC70470023E5E71D
:1020100000F00F000901C9B2024B1954F4E700BFE8
:1020200000ED00E014ED00E0002807DB00F01F02E7
:10203000400901239340024A42F82030704700BF14
:1020400000E100E0BFF34F8F0549CA6802F4E06287
:10205000044B1343CB60BFF34F8F00BFFDE700BFBE
:1020600000ED00E00400FA050138B0F1807F0AD2EB
:10207000064B5860064AF02182F823100020986031
:1020800007221A6070470120704700BF10E000E08F
:1020900000ED00E02DE9F04804460168836802691C
:1020A000134342691343C269134308689E4A0240BE
:1020B00013430B602268536823F44053E1680B43D9
:1020C0005360A1692268994B9A4201D0236A19434F
:1020D000936823F430630B4393602368944A9342DC
:1020E0001FD0944A934230D0934A934246D08F4AAD
:1020F000934259D010258D4A934276D0E369B3F5C7
:10210000004F00F0ED80082D00F28981DFE815F026
:1021100049015F0169018701740187018701870116
:102120007E0102F55842D2F8882002F00302032A09
:1021300009D8DFE802F0020452060125DBE7042596
:10214000D9E70825D7E71025D5E702F5E632D2F81A
:10215000882002F00C020C2A0ED8DFE802F0070DEE
:102160000D0D090D0D0D400D0D0D0B000025C2E7E5
:102170000425C0E70825BEE71025BCE702F5E432D8
:10218000D2F8882002F03002102A09D005D9202A7E
:1021900027D0302A06D10825ADE71AB90025AAE7CD
:1021A0000425A8E71025A6E702F5C832D2F8882052
:1021B00002F44062B2F5806F0BD007D9B2F5006F20
:1021C00011D0B2F5406F06D1082594E71AB9002561
:1021D00091E704258FE710258DE702258BE702257F
:1021E00089E7022587E7022585E7082D00F21A8195
:1021F000DFE815F00C001801140018011100180197
:102200001801180109004FF4004008E0FFF73AFBFD
:1022100028B90020D6E0FEF71BFFF9E747486268BF
:1022200002EB4203834200F2FF80B0EB023F00F278
:10223000FD80082D51D8DFE805F0055020503050C2
:1022400050504300FFF71EFB0025070E0602626890
:1022500050082B4616EB000B47F1000C5846614620
:10226000FEF7D4FC03462846A3F54071344A914258
:1022700000F2DE802268D360A4E0560800252B46D9
:10228000DFF8C0B04FF0000C1BEB06004CF1000172
:10229000FEF7BCFC03462846E6E7FEF7D9FE00251C
:1022A000070E0602626850082B4616EB000B47F13A
:1022B000000C58466146FEF7A9FC03462846D3E7C2
:1022C0005008002700252B4610F5000047F10001BB
:1022D000FEF79CFC03462846C6E701200023C3E71F
:1022E000082D5BD8DFE805F005303B5A465A5A5AAC
:1022F0005100FFF7C7FA6268530803EB4003B3FBD2
:10230000F2F39BB20020A3F110014FF6EF7291425D
:1023100000F290809AB222F00F02C3F342031343FB
:102320002268D3604EE000BFF369FFEF00800040F9
:102330000038014000440040004800400024F40000
:10234000FFFC0F00000024F4FFF7ACFA62685308AA
:1023500003EB4003B3FBF2F39BB20020D3E76268C8
:10236000530803F1F47303F59043B3FBF2F39BB20C
:102370000020C8E7FEF76CFE6268530803EB4003D9
:10238000B3FBF2F39BB20020BDE76268530803F58C
:102390008033B3FBF2F39BB20020B4E701200023AB
:1023A000B1E7FFF76FFA636800EB5302B2FBF3F299
:1023B00092B20020A2F110014FF6EF7399423BD880
:1023C0002368DA60002222666266BDE8F088FFF7C3
:1023D00069FA636800EB5302B2FBF3F292B2002099
:1023E000E8E763685A0802F5740202F51052B2FB7E
:1023F000F3F292B20020DDE7FEF72AFE636800EBFD
:102400005302B2FBF3F292B20020D3E763685A089A
:1024100002F50042B2FBF3F292B20020CAE70120BB
:102420000022C7E70120CDE70120CBE70120C9E763
:102430000120C7E70120C5E70120C3E7436A13F085
:10244000010F06D00268536823F40033816A0B43FE
:102450005360436A13F0020F06D00268536823F4F6
:102460008033C16A0B435360436A13F0040F06D0F4
:102470000268536823F48023016B0B435360436A63
:1024800013F0080F06D00268536823F40043416B31
:102490000B435360436A13F0100F06D00268936831
:1024A00023F48053816B0B439360436A13F0200F36
:1024B00006D00268936823F40053C16B0B4393600A
:1024C000436A13F0400F0AD00268536823F4801364
:1024D000016C0B435360036CB3F5801F0BD0436A50
:1024E00013F0800F06D00268536823F40023816C38
:1024F0000B43536070470268536823F4C003416C78
:102500000B435360EBE72DE9F04105460F461646B5
:102510009846069C2B68DB6937EA03030CBF01234E
:102520000023B3421DD1B4F1FF3FF3D02CB115F01D
:1025300002FEA0EB0800A042ECD92A68136823F43D
:10254000D07313602A68936823F0010393602023FB
:1025500085F8713085F87230002385F870300320DB
:1025600000E00020BDE8F0812DE9F04182B01E4678
:1025700090F87130DBB2202B4ED104460D469046C8
:1025800000294ED0002A4ED090F87030012B4CD04C
:10259000012380F8703000234367212380F87130D5
:1025A00015F0C9FD0746A4F85080A4F8528009E050
:1025B00023682A781A850135B4F85230013B9BB262
:1025C000A4F85230B4F852309BB2ABB100963B46FF
:1025D000002280212046FFF796FF40BBA368B3F599
:1025E000805FE5D12369002BE2D1226835F8023BF8
:1025F000C3F308031385DFE700963B460022402122
:102600002046FFF780FF034698B9202284F8712006
:10261000002284F8702000E00223184602B0BDE8D2
:10262000F0810123F9E70123F7E70223F5E703230C
:10263000F3E70323F1E730B583B004460023436793
:1026400015F079FD054623681B6813F0080F0ED1BD
:1026500023681B6813F0040F17D1202384F871300E
:1026600084F87230002084F8700003B030BD6FF041
:102670007E430093034600224FF400112046FFF7EB
:1026800042FF0028E4D00320EFE76FF07E43009381
:102690002B4600224FF480012046FFF734FF00282C
:1026A000DBD00320E1E778B310B5044690F8713031
:1026B0000BB3242384F871302268136823F00103DC
:1026C00013602046FFF7E6FC012813D0636ABBB90C
:1026D0002268536823F4904353602268936823F080
:1026E0002A0393602268136843F0010313602046B5
:1026F000FFF7A1FF10BD80F8703015F025FCD8E77A
:102700002046FFF79BFEE3E701207047704700007B
:1027100010B50446074B1868074BA3FB003080092F
:10272000FFF7A2FC002221464FF0FF30FFF748FCE4
:10273000002010BD44040020D34D621008B50320D2
:10274000FFF72CFC0020FFF7E3FFFFF7DFFF00207F
:1027500008BD38B5044615F0EEFC0546B4F1FF3F60
:1027600000D0013415F0E7FC401BA042FAD338BD7D
:10277000F8B505460F4616461C4639E02CB115F053
:10278000DAFC069BC01AA04232D32A68536823F0B1
:10279000E00353606B68B3F5827F0BD0AB6AB3F58F
:1027A000005F14D0012385F85D30002385F85C308C
:1027B000032025E0AB68B3F5004F02D0B3F5806F7E
:1027C000ECD12A68136823F040031360E6E72A6817
:1027D000136823F4005313602A68136843F400530A
:1027E0001360DFE70123B34209D0B4F1FF3FC5D145
:1027F0002B689B6837EA0303F4D00023F3E700203B
:10280000F8BDF0B583B007460C4615461E4602E0FB
:10281000B6F1FF3F10D13A6893682340AB423FD0F6
:10282000B4F5C06FF4D1002DF2D1137BDBB28DF87B
:1028300007309DF80730EBE72EB115F07CFC089BC4
:10284000C01AB042E7D33A68536823F0E0035360FC
:102850007B68B3F5827F0BD0BB6AB3F5005F14D001
:10286000012387F85D30002387F85C30032018E0EF
:10287000BB68B3F5004F02D0B3F5806FECD13A6876
:10288000136823F040031360E6E73A68136823F403
:10289000005313603A68136843F400531360DFE792
:1028A000002003B0F0BD70B582B004460D46164658
:1028B00000920B4600224FF4C051FFF7A2FFB8B9B7
:1028C00000962B46002280212046FFF751FFB8B921
:1028D00000962B4600224FF4C0612046FFF791FF7F
:1028E000034650B1236E43F020032366032304E024
:1028F000236E43F0200323660323184602B070BD05
:10290000236E43F0200323660323F6E7002853D009
:1029100010B504460023836290F85D30002B40D050
:10292000022384F85D302268136823F040031360AB
:10293000E368B3F5E06F39D90022B3F5706F04D0C6
:10294000B3F5E06F01D00021A162216B21B9B3F58D
:10295000E06F2ED9022323636368A1680B432169CA
:102960000B4361690B43A16901F400710B43E169F9
:102970000B43216A0B43A06A216803430B60638BFE
:1029800003F00403616A0B43616B0B43E1680B4383
:10299000216813434B6000202066012384F85D30DA
:1029A00010BD80F85C3015F01DFDB9E74FF4805282
:1029B000C3E701232363CFE7012070472DE9F041EE
:1029C00082B01E4690F85C30012B00F0D6800446A1
:1029D0000D469046012380F85C3015F0ACFB0746AD
:1029E00094F85D30DBB2012B09D00220012384F87A
:1029F0005D30002384F85C3002B0BDE8F081002D2A
:102A000000F0B180B8F1000F00F0AF80032384F82C
:102A10005D3000232366A563A4F83C80A4F83E80C3
:102A20002364A4F84430A4F846302365E364A36823
:102A3000B3F5004F1BD023681A6812F0400F03D182
:102A40001A6842F040021A60E368B3F5E06F31D9CA
:102A500063681BB1E38F9BB2012B13D1236835F858
:102A6000022BDA60E38F013B9BB2E3870AE0226826
:102A7000136843F480431360DDE7002E77D0B6F18E
:102A8000FF3F10D1E38F9BB2002B57D023689A6889
:102A900012F0020FF1D035F8022BDA60E38F013B20
:102AA0009BB2E387EEE715F046FBC01BB042E9D3CB
:102AB00003209BE763681BB1E38F9BB2012B22D1FC
:102AC000E38F9BB2012B08D9236835F8022BDA601B
:102AD000E38F023B9BB2E38715E023682A781A73E1
:102AE000E38F013B9BB2E38701350CE02A781A7330
:102AF000E38F013B9BB2E387013504E0002E38D021
:102B0000B6F1FF3F13D1E38F9BB2BBB123689A6844
:102B100012F0020FF2D0E28F92B2012AE6D935F814
:102B2000022BDA60E38F023B9BB2E387EBE715F001
:102B300002FBC01BB042E6D3032057E73A463146BA
:102B40002046FFF7B0FE08B120232366A36833B9FF
:102B500001932368DA6801929B680193019B236EBD
:102B60004BB9002042E7012040E701203EE7032067
:102B70003CE703203AE7012038E702203CE70368FE
:102B80009A6912F0020F01D000229A6203689A69D2
:102B900012F0010F03D19A6942F001029A61704765
:102BA00070B4039E05686868740D04F4806444F092
:102BB0007F7444F4583444F47F7444F0030420EAEE
:102BC0000400C1F3090141EA0241194331430143C1
:102BD000696070BC704770B504460D4616460368C0
:102BE0009B6913F0100F1CD023689A6912F0200F14
:102BF00019D1B5F1FF3FF7D015F09DFA801BA8421F
:102C000001D8002DF0D1636C43F0200363642023CE
:102C100084F84130002384F8423084F840300120A9
:102C200020E000201EE01022DA6123682025DD610B
:102C30002046FFF7A4FF2268536823F0FF7323F4B4
:102C40008B3323F4FF7323F001035360636C43F071
:102C50000403636484F84150002384F8423084F80C
:102C60004030012070BD70B504460D4616462368FD
:102C70009B6913F0020F1DD1324629462046FFF70B
:102C8000AAFFC8B9B5F1FF3FF1D015F054FA801B87
:102C9000A84201D8002DEAD1636C43F0200363649D
:102CA000202384F84130002384F8423084F84030F7
:102CB000012000E0002070BD0120FCE7F8B50546CA
:102CC0000F4616461C462B689B6937EA03030CBF68
:102CD00001230023B34218D1B4F1FF3FF3D015F024
:102CE0002AFA069BC01AA04201D8002CEBD16B6CCB
:102CF00043F020036B64202385F84130002385F8DE
:102D0000423085F84030012000E00020F8BD70B569
:102D100005460C4616462B689B6913F0200F1AD106
:102D2000324621462846FFF756FFB0B915F003FAA0
:102D3000801BA04201D8002CEDD16B6C43F0200326
:102D40006B64202385F84130002385F8423085F8F4
:102D50004030012070BD0020FCE70120FAE770B58B
:102D600004460D46164623689B6913F0040F3ED1B6
:102D7000324629462046FFF72EFF0146002838D16B
:102D800023689A6912F0200F13D115F0D4F9801B33
:102D9000A84201D8002DE6D1636C43F020036364A0
:102DA000202384F84130002384F840300121084674
:102DB00070BD9A6912F0040F02D0228D002AF6D15C
:102DC0002022DA6121684B6823F0FF7323F48B33F0
:102DD00023F4FF7323F001034B600023636484F842
:102DE000412084F8423084F840300121DFE700219F
:102DF000DDE70121DBE710B50446002847D090F855
:102E00004130002B48D0242384F8413022681368D5
:102E100023F0010313606368226823F07063136179
:102E20002268936823F400439360E368012B38D051
:102E3000A368226843F404439360E368022B36D00E
:102E40002268536843F0007343F4004353602268E0
:102E5000D36823F40043D360236962691343A169F3
:102E6000226843EA0123D360E369216A22680B43A5
:102E700013602268136843F001031360002060644C
:102E8000202384F84130206384F8420010BD4FF4C1
:102E9000007343640120F9E780F8403015F004FA2C
:102EA000B1E7A368226843F400439360C5E7236851
:102EB0004FF400625A60C3E72DE9F04383B090F805
:102EC0004150EDB2202D40F0A38090F84040012CFD
:102ED00000F0A380984617460E4604464FF00109BD
:102EE00080F8409015F027F90546009019234A46CE
:102EF0004FF400412046FFF7E1FE002840F08F80AC
:102F0000212384F84130102384F842300023636485
:102F10006762A4F82A806363638D9BB2FF2B0AD992
:102F2000FF222285424B00934FF0807331462046AA
:102F3000FFF736FE18E0628D92B222853C4B00937B
:102F40004FF00073D2B231462046FFF729FE0BE066
:102F5000628D92B22285002300934FF00073D2B2AB
:102F600031462046FFF71CFE638D9BB2002B32D00A
:102F70002A460A992046FFF776FE002851D1636A57
:102F80005A1C626222681B789362638D013B9BB27C
:102F90006385238D013B9BB22385628D92B2002A0B
:102FA000E2D0002BE0D100950A9B00228021204630
:102FB000FFF784FE002836D1638D9BB2FF2BC7D963
:102FC000FF222285002300934FF080733146204674
:102FD000FFF7E6FDC8E72A460A992046FFF797FE65
:102FE000034610BB22682021D1612068426822F08C
:102FF000FF7222F48B3222F4FF7222F0010242604F
:1030000084F84110002284F8422084F8402000E037
:103010000223184603B0BDE8F0830223F9E7012339
:10302000F7E70123F5E70123F3E70123F1E700BF09
:10303000002000802DE9F04383B090F84150EDB2BC
:10304000202D40F0A38090F84040012C00F0A38098
:10305000984617460E4604464FF0010980F8409006
:1030600015F069F80546009019234A464FF40041CF
:103070002046FFF723FE002840F08F80222384F8AB
:103080004130102384F84230002363646762A4F85F
:103090002A806363638D9BB2FF2B0AD9FF222285AE
:1030A000424B00934FF0807331462046FFF778FD86
:1030B00018E0628D92B222853C4B00934FF0007372
:1030C000D2B231462046FFF76BFD0BE0628D92B223
:1030D0002285002300934FF00073D2B23146204680
:1030E000FFF75EFD638D9BB2002B32D02A460A9912
:1030F0002046FFF734FE002851D123685A6A636ADC
:10310000591C61621A70238D013B9BB22385628D2D
:10311000013A92B26285628D92B2002AE2D0002B0F
:10312000E0D100950A9B002280212046FFF7C6FDD2
:10313000002836D1638D9BB2FF2BC7D9FF22228591
:10314000002300934FF0807331462046FFF728FD9F
:10315000C8E72A460A992046FFF7D9FD034610BB67
:1031600022682021D1612068426822F0FF7222F497
:103170008B3222F4FF7222F00102426084F8411087
:10318000002284F8422084F8402000E00223184600
:1031900003B0BDE8F0830223F9E70123F7E7012339
:1031A000F5E70123F3E70123F1E700BF00240080E6
:1031B00090F84130DBB2202B24D190F84030012B25
:1031C00022D0012380F84030242380F84130026867
:1031D000136823F0010313600268136823F480531B
:1031E000136002681368194311600268136843F0A2
:1031F00001031360202380F84130002380F8403021
:1032000018467047022070470220704790F84130FE
:10321000DBB2202B22D190F84030012B20D00123AB
:1032200080F84030242380F841300268136823F08E
:10323000010313600268136823F4706343EA0121F9
:1032400011600268136843F001031360202380F8C3
:103250004130002380F84030184670470220704704
:1032600002207047F0B44B6A33B1B2F1406F03D023
:103270008B6A0468013B23618C69002C6ED00E6A56
:10328000002E3BD003688C68DC61CC69F4B1CB6A5A
:103290000D6B2B434D6B2B434D6A2B434D6943EA1A
:1032A00085430D692B430D6A2B43CD682B43234384
:1032B0008C6923430C682343046813436361B2F1B0
:1032C000406F19D003684A689A6115E0CB6A0D6BAC
:1032D0002B434D6B2B434D6A2B434D6943EA85438A
:1032E0000D692B430D6A2B4323438C6923430C68E0
:1032F000234301681A434A61F0BC7047CD69D5B1D8
:10330000CB6A0F6B3B434F6B3B434F6A3B434F6969
:1033100043EA87433343CE6833432B4323430C684C
:103320002343046813436361B2F1406FE4D0036840
:103330004A689A61E0E7CB6A0F6B3B434F6B3B43B4
:103340004F6A3B434F6943EA874333432B4323434D
:103350000C68234301681A434A61CDE70E6A002EC8
:1033600036D003688C68DC61CD69E5B1CB6A0C6B43
:1033700023434C6B23434C6A23434C6943EA844305
:103380000C6923430C6A2343CC6823432B438C6989
:103390002343046813436361B2F1406FACD0036808
:1033A0004A689A61A8E7CC6A0B6B1C434B6B1C43C1
:1033B0004B6A1C434B6944EA83440B691C430B6A08
:1033C0001C432C438D692C43036822435A6193E7C5
:1033D000CF69CFB1CD6A0B6B1D434B6B2B434D6A4D
:1033E0002B434D6943EA85433343CD682B433B432D
:1033F0002343046813436361B2F1406F3FF47CAF31
:1034000003684A689A6177E7D1F824C0BCF1000FDD
:103410003FF472AFCD6A0B6B1D434B6B1D434CEAFF
:103420000503496943EA814333433B43234301682E
:103430001A434A6160E72DE9F04105460F461646FA
:103440009846069C2B689B683B4214BF01230023CF
:10345000B34213D0B4F1FF3FF4D014F06CFEA0EBF4
:103460000800A04201D8002CECD1042385F841309B
:103470006B6C43F001036B64012000E00020BDE8A9
:10348000F0812DE9F04182B004460F46164614F053
:1034900052FE94F84030DBB2012B3BD005460123AD
:1034A00084F8403094F84130DBB2012B08D04FF063
:1034B0000208002384F84030404602B0BDE8F081A5
:1034C00000226264022384F84130009603462021E2
:1034D0002046FFF7B0FF80460028EAD10022394697
:1034E0002046FFF7BFFE7B6A1BB1012384F8413001
:1034F000DFE700962B46012202212046FFF79BFFC3
:1035000080460028D5D123680222DA60012384F89E
:103510004130CEE74FF00208CEE72DE9F04182B00E
:1035200004468846174614F006FE256894F8403095
:10353000DBB2012B54D00646012384F8403094F8C6
:103540004130DBB2012B07D00222002384F8403047
:10355000104602B0BDE8F08100236364B8F1000FAB
:1035600038D0122384F841302B690133E3622B6990
:103570000133A362C4F824806B6923F040636B615C
:103580000022E36A9BB100973346012204212046C2
:10359000FFF751FF024650B9636A1B7885F8203067
:1035A000636A01336362E36A013BE362E9E71AB1EC
:1035B000012384F84130C8E70097334601220221F5
:1035C0002046FFF738FF02460028F1D12368022188
:1035D000D960EDE7636C43F0080363640122B4E74C
:1035E0000222B5E72DE9F04182B00446884617462D
:1035F00014F0A1FD2568AA6994F84030DBB2012BD4
:1036000058D00646012384F8403094F84130DBB2AC
:10361000012B07D00222002384F84030104602B06C
:10362000BDE8F08100236364B8F1000F3CD0222391
:1036300084F841302B690133A3632B690133636341
:10364000C4F830806B6923F0406343F080636B61A2
:1036500023689A610022A36B9BB100973346012235
:1036600006212046FFF7E7FE024650B9236B95F886
:1036700020101970236B01332363A36B013BA363F9
:10368000E9E71AB1012384F84130C4E700973346D3
:10369000012202212046FFF7CEFE02460028F1D18A
:1036A00023680221D960EDE7636C43F0080363648B
:1036B0000122B0E70222B1E78164704730B583B0E0
:1036C000044614F038FD002C56D0054694F84030DE
:1036D000DBB2012B52D0012384F8403094F8413002
:1036E000002B3ED021680B6823F47063A268013A76
:1036F00043EA02230B60A36C00932B460022202197
:103700002046FFF798FE014628BB2068036823F097
:103710007F4323F0D0036568E26842EA0562E56909
:103720002A43256A2A431343036020684268144BE6
:1037300013402569626942EA0542A5692A43134399
:1037400043602268136843F001031360002363643D
:10375000012384F84130002384F84030084603B048
:1037600030BD84F84030204600F00CF841F288313A
:103770002046FFF7A1FFB5E70121EFE70221EDE7C2
:10378000FEF8E0FF0268124B9A4200D0704700B585
:1037900087B003F1204303F500331A6D42F48072C1
:1037A0001A651B6D03F480730093009B40F603437E
:1037B00001930223029300230393032304930A2318
:1037C000059301A90348FEF7D5F807B05DF804FB9F
:1037D000001000A00004004800B58FB000900191D7
:1037E00005920693109B0793119B0393129B0993D9
:1037F00000230D9308930B930C9341F28832694692
:103800000248FFF73EFE0FB05DF804FB10170020E2
:1038100000B585B000210291019100914FF48073B1
:103820000A460620FFF7D8FF05B05DF804FB00004C
:1038300008B5064B1A680139116141F28832014618
:103840001846FFF7CFFE00B1012008BD1017002079
:1038500000B587B000238DF817304FF080730293C6
:103860000021019100914FF480730A460520FFF773
:10387000B3FF01210DF11700FFF7DAFF9DF81730B4
:1038800013F0010FE9D107B05DF804FB08B5064B52
:103890001A680139116141F2883201461846FFF772
:1038A0003CFE00B1012008BD101700200AB900201D
:1038B000704770B584B015460E460446FFF7A8FF62
:1038C0004FF0807302934FF4005301934FF48063E1
:1038D00000934FF48073002231460220FFF77CFFF3
:1038E00029462046FFF7D2FFFFF7B2FF002004B0C1
:1038F00070BD10B584B00446FFF78AFFFFF7A8FF3C
:10390000002202924FF4005301934FF4806300931E
:103910004FF4807321462020FFF75EFF0446FFF737
:1039200097FF204604B010BD08B51048104B036047
:1039300000224260042383601023C3604FF0807331
:1039400093FAA3F3B3FA83F3013B03614FF440739B
:1039500043618261C2610262FFF7B0FE00B908BD37
:10396000FE21044814F0EBFBF9E700BF101700201C
:10397000001000A0F8D6010800291DDBB0F5000FEB
:103980001DD20144B1F5000F1CD238B5013921F424
:103990007F6525F00F0520F47F6424F00F04AC420E
:1039A00008D82046FFF7A5FFB0F1FF3F03D004F58C
:1039B0008054F4E7002038BD4FF0FF3070474FF0DF
:1039C000FF3070474FF0FF307047002800F0AA80AA
:1039D0002DE9F04F83B00D4690460646002A00F0D0
:1039E000A4800029C0F2A4801468B4F5000F80F010
:1039F000A2800B19B3F5000F80F0A080E2B257420D
:103A0000FFB2894600291CDB4FEA29296B425FFA85
:103A100085FADBB258BFC3F1000A6ABBB9F1000FE7
:103A200012D000274F4517DA4FF48072214606EB7B
:103A30000720FFF73BFF00281BDB04F580740137EC
:103A4000F0E701F1FF09DFE72A4621463046FFF79C
:103A50002DFF002808DA0CE05246214606EB09202B
:103A6000FFF724FF002804DBD8F800301D44C8F815
:103A7000005003B0BDE8F08FB9F1000F1AD15745DF
:103A800010DAAAEB070A3A4621463046FFF70EFF46
:103A90000028EEDB5246E119F019FFF707FF002876
:103AA000E2DAE6E72A4621463046FFF7FFFE002825
:103AB000DADADEE7ED1BAA46002D23DB4FEA2A2ADD
:103AC0006B42EAB2DBB258BF5A4201923A462146F3
:103AD0003046FFF7EBFE0028CBDBBB463C444FF003
:103AE0000009D14511DA0BEB09204FF48072214611
:103AF0003044FFF7DBFE0028BBDB04F5807409F1DE
:103B00000109EEE705F1FF0AD8E7019B002BABD0D6
:103B100007EB0A201A4621463044FFF7C7FE00286B
:103B2000A2DAA6E74FF0FF3070474FF0FF30A0E772
:103B30004FF0FF309DE74FF0FF309AE74FF0FF3036
:103B400097E730B583B004460D4601921046FFF763
:103B500013FF002804DB01AA29462046FFF735FFA2
:103B600003B030BD20B370B584B00646002922DB17
:103B7000B2F5000F22D28818B0F5000F21D21546F9
:103B80000C464FF0807302934FF4005301934FF4AF
:103B9000806300934FF48073082229460B20FFF7BF
:103BA0001BFE21463046FFF743FE002004B070BDE7
:103BB0004FF0FF3070474FF0FF30F7E74FF0FF3026
:103BC000F4E74FF0FF30F1E7C0B170B582B00646C0
:103BD0000D460024AC420ED201A90B4800F04AFB6E
:103BE00078B92A1B042A28BF042201A9301917F02A
:103BF000B6FD0434EEE7002002B070BD4FF0FF3098
:103C000070474FF0FF30F7E75C17002000B585B034
:103C1000012304AA02F8013DFF2100914621034837
:103C2000FFF74AF905B05DF804FB00BFAC1B0020AC
:103C300000B585B004AA102302F8013DFF230093CC
:103C4000012346210248FFF737F905B05DF804FB70
:103C5000AC1B002010B582B0FFF7EAFFB420FEF7DE
:103C600078FD0F4CFF2300930223224647210D4885
:103C7000FFF7E0F92378607800EB03200A4B186027
:103C8000FCF720FC4FF03332084BFCF7AFFDFCF79C
:103C90001DFF074B186000EE100A02B010BD00BFF8
:103CA00070170020AC1B0020741700203333F33F43
:103CB0006C170020012202E000FB02F219464B1EA5
:103CC000DBB20029F8D11046704708B514F0BEFBEE
:103CD00008BD000010B582B002AC04F8010D01224D
:103CE00040210448FDF710FF01212046FFF7EDFFBA
:103CF00002B010BD0008004810B582B002AC04F854
:103D0000010D002240210448FDF7FEFE012120465E
:103D1000FFF7DBFF02B010BD000800482DE9F041BD
:103D200088B0254BDA6C42F00202DA64DA6C02F0F9
:103D300002020192019ADA6C42F00402DA64DB6C4E
:103D400003F004030293029B4FF4004703970124FE
:103D50000494059402250695184E03A93046FDF7F4
:103D600009FE002239463046FDF7CEFE4FF0C0086E
:103D7000CDF80C80049405940695114D03A92846AE
:103D8000FDF7F8FD002241462846FDF7BDFE002262
:103D900039463046FDF7B8FE002280212846FDF75F
:103DA000B3FE0C2014F0BAF9224680212846FDF714
:103DB000ABFE08B0BDE8F0810010024000040048EE
:103DC0000008004800B583B0030A8DF804308DF870
:103DD0000500012240210548FDF796FE022101A8B9
:103DE000FFF773FF03B05DF804FB00BF0008004855
:103DF000F8B507460D4616461C462A20FFF77CFFFD
:103E0000380AFFF767FFF8B2FFF764FF300AFFF7E1
:103E100061FFF0B2FFF75EFF2B20FFF76DFF280A6E
:103E2000FFF758FFE8B2FFF755FF200AFFF752FFF0
:103E3000E0B2FFF74FFF2C20FFF75EFFF8BD000058
:103E400038B5050AC4B2EF231A4600210846FFF729
:103E5000CFFF002307E05A000D4901F8135001324B
:103E60008C5401339BB2B3F5107FF4D3012240216F
:103E70000848FDF749FE002406E04FF4906104482D
:103E8000FFF723FF0134A4B2632CF6D938BD00BF7D
:103E9000D8060020000800482DE9F843203A5FFAD0
:103EA00082F85C08C4F1F002904203DCC3F1F00236
:103EB000914201DDBDE8F8831E46021992B2CB188B
:103EC0009BB2013B013A9BB292B2FFF791FF102ED9
:103ED0000BD0202E09D00C2E36D0182EEAD1360168
:103EE000C6F3C7064FF000096BE016F0070318BFD2
:103EF000012303EBD60313FB04F45FFA84F90027D4
:103F000016E0384B03EB0813DD5D1BE0364B1888D9
:103F1000FFF758FF6D00EDB20134E4B2072C05D86D
:103F200015F0800FF2D1314B1888F1E70137FFB25D
:103F30004F45BFD2102EE4D0202EBBD12C4B03EB2B
:103F4000C813DD5D0024E9E716F0070318BF01235D
:103F500003EBD60313FB04F4E7B2002611E0224B77
:103F60001888FFF72FFF6D00EDB20134E4B2052C85
:103F700005D815F0800FF2D11C4B1888F1E70136F7
:103F8000F6B2BE4296D208EB48039A00194B13448E
:103F90009D5D0024EBE7042721E0134B1888FFF711
:103FA00011FF6D00EDB20134E4B2BC4205D215F050
:103FB000800FF2D10D4B1888F1E709F101095FFA82
:103FC00089F9B145BFF476AF08EB48031A010A4BF3
:103FD000134413F8095019F0010FDCD1082700240D
:103FE000E3E700BFDCDB0108D4060020000400206A
:103FF0009CF3010868D70108CCE101082DE9F047DE
:104000008246894690461D469DF8206000273C4622
:1040100015E0700800FB04A033462022494680B218
:10402000FFF73AFF09E07008303200FB04A0334686
:10403000D2B2494680B2FFF72FFF0134E4B2AC425E
:104040001AD2291BC9B20139C9B20A20FFF732FEC0
:10405000B8FBF0F0094AA2FB0032D20802EB820260
:104060005300C21AD2B2002FDDD16B1E9C42DADAA5
:10407000002ACED00127D6E7BDE8F087CDCCCCCC46
:104080002DE9F04782460D469DF82070099E0244B6
:104090001FFA82F90B441FFA83F804460AE04545EB
:1040A00015D23B4629462046FFF7F6FE04EB57049F
:1040B000A4B201363278A2F12003DBB25E2B06D81F
:1040C0004C45ECD35FFA8AF43D44ADB2E7E7BDE876
:1040D000F087000008B5FFF721FE0C2014F01EF851
:1040E0001120FFF709FE0C2014F018F83620FFF716
:1040F00003FE0020FFF7EEFD3A20FFF7FDFD6520EF
:10410000FFF7E8FDB220FFF7F7FD0C20FFF7E2FD17
:104110000C20FFF7DFFD0020FFF7DCFD3320FFF769
:10412000D9FD3320FFF7D6FDB720FFF7E5FD72205C
:10413000FFF7D0FDBB20FFF7DFFD3D20FFF7CAFDF5
:10414000C020FFF7D9FD2C20FFF7C4FDC220FFF7E8
:10415000D3FD0120FFF7BEFDC320FFF7CDFD1920E1
:10416000FFF7B8FDC420FFF7C7FD2020FFF7B2FD21
:10417000C620FFF7C1FD0F20FFF7ACFDD020FFF7F1
:10418000BBFDA420FFF7A6FDA120FFF7A3FDE020C3
:10419000FFF7B2FDD020FFF79DFD0420FFF79AFD49
:1041A0000D20FFF797FD1120FFF794FD1320FFF777
:1041B00091FD2B20FFF78EFD3F20FFF78BFD542054
:1041C000FFF788FD4C20FFF785FD1820FFF782FDE3
:1041D0000D20FFF77FFD0B20FFF77CFD1F20FFF771
:1041E00079FD2320FFF776FDE120FFF785FDD02044
:1041F000FFF770FD0420FFF76DFD0C20FFF76AFD4F
:104200001120FFF767FD1320FFF764FD2C20FFF757
:1042100061FD3F20FFF75EFD4420FFF75BFD51206D
:10422000FFF758FD2F20FFF755FD1F20FFF752FD28
:104230001F20FFF74FFD2020FFF74CFD2320FFF745
:1042400049FD2120FFF758FD2920FFF755FDEF23F9
:104250001A4600210846FFF7CBFD4FF6FF70FFF727
:10426000EFFD01224FF400410148FDF74DFC08BD70
:10427000000400480379012B28D070B50D46044690
:10428000012303714379DBB2012B03D0012000230A
:10429000237170BD0223437113F04DFF064623685E
:1042A0005A6812F0010F0AD113F045FF801B022853
:1042B000F5D904236371002323710320E9E79B6888
:1042C000E3602B60012363710020E0E70220704768
:1042D000014B10221A607047BC17002010B502F085
:1042E00003F9044618B9FBF7CBFE204610BD03487E
:1042F00017F0E0FD024817F087FEF6E77423020886
:104300007C23020810B5FFF7E3FF214B214A1A6016
:1043100001F090FDE8B902F063F900F0FFF90446FE
:1043200008BB00F071FA01F0CBF90446C8B901F0FE
:104330005BFB0446A8B900F07BFF0446D0B900F04F
:1043400011FE0446E8B900F04DF800F083FB044686
:1043500007E00446104817F0ADFD21460F4817F05E
:10436000A9FD204610BD0C4817F0A4FD0C4817F01D
:104370004BFEF6E7084817F09DFD0A4817F044FE8B
:10438000EFE7054817F096FD074817F03DFEE8E710
:104390007817002058240020742302081C230208E8
:1043A000382302084C230208602302082DE9004844
:1043B0000849D1E9002312F1010B43F1000CC1E9D6
:1043C00000BC00F017F800F037F900F021FFBDE85D
:1043D000008800BF80170020014BD3E9000170471F
:1043E00080170020024B00221A600A22DA807047F0
:1043F0009817002008B50E4B1A680E4B1B689A429E
:1044000008D00B4A13600C4B1B88D1880B449BB21D
:10441000013B9380064B9A88074B1B889A4200D039
:1044200008BD034B00221A6000F050FCF8E700BF03
:1044300098170020C417002080170020FEE7000016
:10444000F8B5354B1B68DB681B68B3F1CC3F51D125
:10445000314B5A681168D368994203D99268134462
:10446000994213D92D4D284617F024FD2A4C636834
:104470001A69596A2A4817F01DFD284617F01AFDD7
:104480006368DA681968274817F014FD224B5A68E8
:1044900025480378148A00EB43014C805B011033FC
:1044A0000344526A176856689568D468C3F8067062
:1044B000C3F80A60C3F80E50C3F812401769566972
:1044C0009569D469C3F81670C3F81A60C3F81E5012
:1044D000C3F82240037800EB4312002182F8351024
:1044E0000133DBB203700A2B0FD0104B1B6803B1F2
:1044F0009847F8BD094817F0DDFC074B1B681A699F
:10450000596A0B4817F0D6FCA2E7034619704278A7
:1045100062F07F024270E8E7C417002074230208AB
:10452000C4230208E8230208D8170020600B0020EB
:104530009C230208838813F0040F01D1C1807047C7
:1045400070B50D46044600F12806304600F090FC98
:10455000A388E58043F00403A3802946304600F099
:1045600067FC70BD70B44A0911F01F0100D1013A17
:104570001F4CA3880B4403F01F0322F0784242EA49
:10458000C3628263226802EBC3067168B14213D032
:1045900030398D6B25F07844836B23F07842944258
:1045A00015D803F07843121B134383634B6BA3F1BD
:1045B0003001B342EDD10FE000F1300152F8333059
:1045C0005A68426303635A68116059600DE005F050
:1045D0007845A21A2A438A6300F130020B6B5968AE
:1045E0004163036359680A605A6070BC704700BF3A
:1045F000B017002010B4826BD10E0E4B1B6803EB7A
:10460000C103416B994209D08B6803F0784423F0D1
:10461000784322F07842134423438B60436B026B50
:104620001A60036B426B5A600023436303635DF8B7
:10463000044B7047B017002038B5374A93880133D0
:10464000594203F01F0301F01F0158BF4B429BB2B8
:104650009380146804EBC3046068A04206D030382D
:10466000002510E0013A8263002D51D138BD13F4CA
:10467000806F2DD0828822F48062828013F0020F36
:104680003CD06068303800F13003A342ECD083881E
:10469000826B32F07841E5D1426B016B1160026BA5
:1046A000416B516000224263026313F0080FDED0B9
:1046B000828822F008028280C26A816A1160826A5E
:1046C000C16A51600022C26282628261C261D5E722
:1046D00013F4005F0DD0C26A816A1160826AC16AF8
:1046E00051600022C2628262828822F4005282807B
:1046F000C4E7828822F020028280BFE7838843F0EB
:1047000004038380C188283000F092FB0125B8E7BC
:1047100001F0E2FFAAE700BFB017002010B5314B4F
:104720001C68542204FB022421462F4B186801F018
:104730008DFB2E4B1860002850D02246002117F028
:1047400032F82B4B5B601B602A4B5B601B602A4B73
:104750005B601B60002212E0244B1968542303FBAA
:104760000213012199801A6103F128002149096887
:104770004C68DC6299624B681860486001320F2A0D
:10478000EAD91E4900230B60164B1B6817480068C6
:10479000542404FB030341F8043C1A6111229A805B
:1047A0002022DA8000F028FB4FF480710E4B18684D
:1047B00001F04CFB044698B14FF48072002116F0D2
:1047C000F2FF0F4A14600023938003E064602460CA
:1047D000013308341F2BF9D9002010BD0948FCE72C
:1047E0000848FAE7BC17002078170020B817002007
:1047F00030190020D0170020A8170020C81700206B
:10480000B01700200002000310B5084C4FF4AB7243
:104810000021204616F0C7FF0A236370044B054AA7
:104820001A60054B00221A6010BD00BFD817002087
:104830005C0B002041440008600B00202DE9F04192
:10484000002800F09C800746002900F09C800B693E
:10485000002B00F09A800A68002A00F098808B886C
:104860001F2B00F2968018D0CA684D4B4D481B1A7A
:104870009A4200F2908012B94FF43473CB600D4627
:104880000821E86801F017FEE860B0F5987FC0F0F5
:104890008480FBF71BFC80461BE0434B9A42E3D02D
:1048A000424C6DE0636822681A60236862685A604F
:1048B0000026666026603E4B5A68626023605A6834
:1048C00014605C6054F81C1C364801F0D8FA44F8B7
:1048D0001C6C384B5C689C42E4D1354B5E689E4250
:1048E00048D0736832681A60336872685A6000236F
:1048F000736033604046FBF7F1FB56F8188C0822D2
:10490000E968284801F0B7FA044638B30246E96876
:10491000404601F0FFFE46F8280CAB6846F8083C1C
:1049200046F81C4CEB6846F8203C002446F8104C36
:1049300046F80C4C022326F8243CAB8826F8223C8F
:104940002B6846F8143C4FF0FF33736134622B69D7
:1049500046F8043CB462C7F8008011E0FBF7B6FBF0
:104960008046134B5A68726033605A6816605E6006
:10497000114C00E0114C4046FBF7B0FB00E0104C3E
:104980002046BDE8F0810F4CFAE70F4CF8E70F4CDA
:10499000F6E7064CF4E70E4CF2E70E4CF0E700BFEA
:1049A00000FC0020582400203D44000803020002BF
:1049B000D0170020A81700200002000311020002F7
:1049C00007020002010200020502000204020002C6
:1049D000200200020602000270B50646FFF72EFF15
:1049E000054608B1284670BD164B1B683468542232
:1049F00002FB0434FBF76AFB0646A38823F002039C
:104A000043F00403A380E18804F1280000F010FAC9
:104A100000F050FA28380C4B58600C4B1B6833B12F
:104A20000B4B1B881BB9084B1B68984203D13046BF
:104A3000FBF754FBD6E73046FBF750FB01F048FE8E
:104A4000D0E700BFB8170020C4170020CC17002003
:104A5000C017002000B587B00023CDF80630CDF890
:104A60000A30CDF81230ADF81630084B00934FF4F1
:104A7000A0630393064B04931F23ADF804306946EB
:104A80000448FFF7A9FF07B05DF804FB3D440008A8
:104A900090230208A0170020F8B54D4B1B688342F5
:104AA00000F090804B4B1B68834200F08D804A4B96
:104AB0001B68834240F28A800546FBF707FB0746E6
:104AC000464B1B68542404FB0534A68816F0010FDE
:104AD00044D116F0100F05D0414B1B8813B1404B49
:104AE00000221A8016F0040F3CD142F208031E4245
:104AF00008D0E36AA26A1A60A36AE26A5A600023D5
:104B0000E362A36216F0600F35D1A38823F002039D
:104B100043F00103A3804FF0FF33E3630023A3645A
:104B200000F0C8F928382F4B5860A38813F0100FF5
:104B300025D10123A38004F128022B4B5968E1629F
:104B4000A3620A605A60E168284801F098F90025DC
:104B5000E5603846FBF7C2FA284638E0FBF7BEFAB4
:104B6000234834E004F1280000F082F9A38823F000
:104B70000403A380C6E72046FFF73CFDC5E704F128
:104B800028021C4B1B685968E162A36259680A60DD
:104B90005A60114B1B68114A1268542101FB032310
:104BA000104A13601D61A2889A80E268DA60626A26
:104BB0005A620123A3803846FBF790FA01F088FD82
:104BC000002004E00C4802E00C4800E00C48F8BD6E
:104BD000A0170020A4170020BC170020B817002041
:104BE000C0170020C4170020D01700205824002030
:104BF0000A020002A817002014020002210200028B
:104C00000702000210B5074B1B68542404FB003454
:104C10006369206A9847044B00221A802069FFF7D5
:104C20003BFF10BDB8170020C01700202DE9F04150
:104C3000074688461646104B1C6804F1280528468E
:104C400000F016F9A18821F0040141EA0801A180D1
:104C50003B685A68E262A3625A6815605D60B6F10B
:104C6000FF3F07D0A38843F04003A380314620468E
:104C7000FFF778FCBDE8F081C417002038B5044682
:104C800000F12805C36A826A1A60836AC26A5A60A0
:104C90000023C3628362838823EA0101818011F0CB
:104CA000400F04D1A38813F0020F07D038BDFFF7DF
:104CB000A1FCA38823F04003A380F3E743F004039F
:104CC000A380E188284600F0B3F8EFE738B51C4B25
:104CD0001B6819691B4A126891422FD29B8813F0F6
:104CE000040F01D1002038BDFBF7F0F90546144B45
:104CF0001B68D88800F0F0F801281AD9104A136808
:104D0000D96A986A0860996AD86A48600024DC62A7
:104D10009C621068838843F004038380C188283034
:104D200000F086F82846FBF7D9F901F0D5FC2046BB
:104D3000D9E72846FBF7D2F90348D4E70348D2E77E
:104D4000C4170020BC170020100200020702000256
:104D5000F8B5054601F00EFC18BB0446134B1B8842
:104D600013BBD5B1FBF7B2F90746114E30682830B6
:104D700000F07EF83068838823F00403838029469E
:104D8000FFF7F0FB3268938843F0200393803846A6
:104D9000FBF7A4F901F0A0FC04E0FFF797FF04463D
:104DA00000E0044C2046F8BD034CFBE7C017002090
:104DB000C41700200D0200030E0200020C4B1B68FA
:104DC000834213D910B50B4B1C68542303FB0044DA
:104DD000FBF77CF9A38813F0010F03D1FBF77EF9F1
:104DE000606A10BDFBF77AF90020FAE700207047EF
:104DF000BC170020B817002008B54FF480710A4B8B
:104E0000186801F023F8094B186058B1002307E037
:104E1000064A116801EBC302526041F833200133A6
:104E20001F2BF5D908BD00BF7817002038190020C6
:104E300030B40D4B1B6803EBC1025468A24209D089
:104E400053F831305A68426003605A681060586005
:104E500030BC70474FF0004222FA01F4034D2A683B
:104E600022432A60ECE700BF38190020640B0020C1
:104E7000436802681A60036842685A60002343600E
:104E8000036030F8222C094B1B6803EBC2035968FE
:104E90008B4200D070474FF0004323FA02F20449DE
:104EA0000B6823EA02030B60F4E700BF3819002007
:104EB000640B0020064B1B683BB1B3FA83F3054A31
:104EC000126802EBC303586870470020704700BFA8
:104ED000640B002038190020054B1A6802EBC00251
:104EE0005368002001E001305B689A42FBD17047B3
:104EF0003819002000B585B0082301934FF0FF3327
:104F000001AA02A90948006800F02CFB0028F5D18D
:104F1000019B082BF2D1029B002BEFD0FFF75CFA2C
:104F20000398029B9847FFF757FAE7E744190020D8
:104F300000B587B00023019302930593064B0093BD
:104F40004FF480630393054B049369460448FFF7CD
:104F500043FD07B05DF804FBF54E00081C24020871
:104F6000A417002010B582B0402200211C4816F082
:104F70001AFC1C4B00221A604FF4E0711A4B18689F
:104F800000F064FF30B304464FF4E072002116F0E5
:104F90000AFC164B1C60164B1C600023238104F195
:104FA0001C02012305E01381226001339BB21446E9
:104FB0001C320F2BF7D90823009300230D4A102130
:104FC000184600F069F938B9FFF7B2FF034620B17F
:104FD000094B02E0094B00E0094B184602B010BD36
:104FE000680B002048190020781700204019002085
:104FF0003C190020441900200C03000207030002A2
:105000000B030002F0B50369C360068906F00F06C2
:10501000574B53F8264004F06043B3F1C04F12D011
:10502000B3F1804F76D0534B1B680021002B00F06A
:105030009080DC68C268944200F28B80121BC260D0
:1050400019461B68F2E744F00044494B43F82640F8
:1050500024F07F44002310273D464FF0FF3CE646F6
:105060000EE08C420AD9B4FBF1F201FB12422AB9DC
:10507000B4FBF1F1614501D21F468C4601339BB26E
:105080000F2B1BD83A4A52F8232032F07F41F5D03B
:10509000B342F3D002F04042B2F1404FEED18C4225
:1050A000DFD8B1FBF4F204FB1212002AD9D1B1FB14
:1050B000F4F17145E2D21D468E46DFE7102D1DD07A
:1050C0002C4B1B6800246BB1DA6814441E89C5EBB5
:1050D000C5029100284A12680A441289964201D0FA
:1050E0001B68F0E7002B9ED002691B691C1BB4FBF8
:1050F000F2F302FB1344121BC26094E7102F92D00C
:105100000023C3601C4B1A68C7EBC707BB00D1184C
:10511000D3581EE044F00044154B43F82640154B8D
:10512000196800E0096871B10A6903699A42F9D106
:105130000B8903F00F030E4A52F8233003F040436B
:10514000B3F1404FEED100293FF46DAF0023C360AF
:105150000B6803601BB1C468DA68121BDA6019B10E
:10516000086002230371F0BD024B1860F9E700BF2D
:10517000680B0020481900204019002010B582B0AB
:105180001F4B1C6809E003F00F03238103E0012B90
:105190002CD0022B2ED01A4B1C68002C2DD0E3688B
:1051A0005BBB2268164B1A60A36900936369019385
:1051B0000023082269461348006800F005FA637965
:1051C000002BE4D1104B1A6822601C60002222716F
:1051D000238903F00F030D4941F8232023894FF65B
:1051E000DF729342CFD810332381D4E72046FFF7F4
:1051F00009FFD0E701232371CDE702B010BD00BF46
:1052000048190020441900203C190020680B002098
:1052100008B5064B1A681AB1D368013BD3600BB1CD
:10522000002008BDFFF7AAFFFAE700BF48190020D9
:1052300010B54FF4DC71144B186800F007FE134BE7
:105240001860F8B14FF4DC72002116F0ACFA104B84
:105250005B601B60002311E00C4A11682C2202FBEA
:105260000312538102F11C00094909684C68146259
:10527000D1614A681060486001339BB2092BEBD9B9
:10528000002010BD0348FCE77817002054190020C7
:105290004C190020010600022DE9F041BDF818303C
:1052A000002A4ED0181D85B217464FF6FB72934266
:1052B00049D800294AD0002B4AD00E4605FB01F1FF
:1052C000254B186800F0C2FD8046002842D0FAF74E
:1052D000FDFE224B5C689C422AD0636822681A60FB
:1052E000236862685A6024F8166C24F8145C44F849
:1052F0001C8C012324F8183C002524F80C5C24F8AD
:105300000A6C24F8105C24F80E5CA4F1080344F83D
:10531000043C44F8083C6460246004F10803E36042
:10532000A360FAF7DBFE34F8123C3B6028460BE042
:10533000FAF7D4FE4146084B186800F0A0FD084873
:1053400002E0084800E00848BDE8F0810748FBE7B4
:105350000648F9E70648F7E7781700204C190020BF
:10536000040600020C060002030600020D060002FD
:10537000020600022DE9F04F83B004460F46934623
:105380009A4601F00106FAF7A1FE8146694BD3F86F
:1053900000802C2505FB04F508EB0504A388002BF1
:1053A00000F0BA8036B9DAF800202389043B9A422B
:1053B000C0F0BA8036B1DAF800202389043B9A4263
:1053C00000F2B48006F1080334F813304BBB0C9B99
:1053D00023B9002E40F0AC80574C9EE0574B1B8801
:1053E0000BB1574C99E0574B1A680192B01C04EB73
:1053F000C0000C9A4FF400510430FFF717FC4846E8
:10540000FAF76CFE01F068F9FAF760FE8146019A3E
:10541000938813F0400F09D023F0400393804A4C47
:105420007BE006F10802013B24F8123007F0030389
:10543000012B24D0C3B1032B3AD0444816F03AFDD7
:10544000434816F0E1FD86F00106B31C04EBC303EC
:105450001A1D9868824253D1083634F81630013349
:1054600024F81630002458E0A389591CE2889142A0
:1054700002D05A1CA28108E00022A28105E0A38983
:105480009BB9E388013BA381A38958F805102289C1
:1054900002FB03F3CD1817F0040F18D017F0010F1B
:1054A00011D1CB58CBF80030CDE7013BA381EBE71E
:1054B000E389591CE288914202D05A1CE281E4E758
:1054C0000022E281E1E7DBF80020CA50BBE717F0D9
:1054D000010F0BD0DAF800205946284616F03FF9A4
:1054E0002389043BDAF80020EA50ACE7043AAF58CD
:1054F0003A462946584616F032F9CAF80070A2E733
:105500004FF400512838FFF7B9FB4846FAF7E6FD9B
:1055100001F0E2F8002403E00E4C4846FAF7DEFD05
:10552000204603B0BDE8F08F0B4CF6E70B4CF4E7D8
:105530000B4CF2E7541900201D060002C017002092
:1055400006060002C41700200706000274230208A2
:10555000282402080A0600021F060002150600029F
:1055600016060002F0B583B005460E4614461F46E7
:1055700009280CD881B18AB113688BB10FB93B46A9
:1055800006E000F0F7FF034610B10B4B00E00B4BB9
:1055900043B1184603B0F0BD094BF9E7084BF7E7F4
:1055A000084BF5E700972346324600212846FFF7CF
:1055B000E1FE0346EDE700BF180600020E060002FA
:1055C0000F0600021006000270B584B0039209288D
:1055D00011D891B19AB11E460D46044613B100F0A0
:1055E000C9FF70B9009603AB2A4603212046FFF796
:1055F000C1FE04B070BD0448FBE70448F9E7044865
:10560000F7E70448F5E700BF0E06000212060002A5
:10561000130600020906000270B5092840D80446A6
:10562000FAF754FD1F4B19682C2303FB04F40B19E4
:105630009A88002A32D003F114029D69AA4204D04C
:10564000194CFAF74BFD204670BD03F11C021D6A90
:10565000AA4201D0144CF4E703F124059E6AB54236
:1056600001D0114CEDE75D8A1E8A3544DE88B542D3
:1056700001D00E4CE5E70D5900260E519E800C49D5
:105680004C681C62D96122604A60FAF727FD2946FE
:10569000084B186800F0F3FB0446D4E7064CD0E74B
:1056A000064CD0E754190020080600020B06000241
:1056B0004C190020781700200A0600020506000297
:1056C00010B5134B5B601B604FF4A071114B186851
:1056D00000F0BCFB104B1860C0B1002312E00E4A72
:1056E00010681A018118CB800024845201F108004F
:1056F000074A12685468CC608A605168086050603C
:1057000001339BB2132BEAD9002010BD0348FCE7FC
:1057100058190020781700206019002000070002A7
:1057200070B582B0002A2FD016460C460546884236
:105730001FD8FAF7CBFC154A5368934215D05A6824
:10574000196811601A685968516023F8065C0122D3
:1057500023F8082C23F8044C5B601B6033F8023CF0
:105760003360FAF7BBFC00240BE0FAF7B7FC084CF7
:1057700000E0084C0023009322460749074800F048
:10578000A5FE204602B070BD054CFAE7581900206E
:105790000307000208070002F8C3B2A18824020828
:1057A0000207000208B50A464FF6FF71FFF7B8FF7F
:1057B00008BD08B50A460121FFF7B2FF08BD000089
:1057C00070B582B013281FD8154B1E6805017419D7
:1057D000FAF77CFC735B43B104F10803E26893427F
:1057E00007D0FAF77BFC0F4C0FE0FAF777FC0E4C72
:1057F0000BE00E4A5168E160A2600B605360002428
:105800007453FAF76BFC07E0074C00230093224621
:105810000749084800F05AFE204602B070BD00BF9C
:105820006019002009070002010700025819002032
:10583000F8C3B2A1882402082DE9F04182B01328F0
:105840001CD80F46334B1D6804012E19FAF73EFC95
:1058500080462B5BDBB1738823BB002F4AD000F05E
:1058600089FE044620BB2C4B1B884BB32B4816F0FB
:1058700021FB2B4816F0C8FB2A4C3CE02A4C0023A5
:105880000093224629492A4800F020FE3DE0FAF71D
:1058900025FC254C0023009322462449244800F08F
:1058A00015FE32E0013B7380FAF718FC00242CE06F
:1058B0001A4816F0FFFA1F4816F0A6FB1E4C1AE015
:1058C0001E4B1D68AE613A4608217018FFF7AEF90D
:1058D0004046FAF703FC00F0FFFEAB8813F0400FE0
:1058E00013D0FAF7F3FB8046AB8823F04003AB807C
:1058F000134C00E0134C4046FAF7F0FB00230093F2
:1059000022460A490A4800F0E1FD204602B0BDE8FF
:10591000F08100BF60190020C01700207423020826
:10592000642402080607000201070002F8C3B2A1BE
:10593000882402084424020805070002C417002036
:105940000707000204070002F0B583B0214B1E6870
:105950000501741913283AD8FAF7B8FB0746735BA8
:10596000B3B1A388628893421ED004F10803E068B3
:10597000834225D0002440F8104C08212838FFF736
:105980007DF93846FAF7AAFB00F0A6FE20461FE094
:10599000FAF7A4FB104C0023009322460F4910484D
:1059A00000F094FD204613E0FAF798FB0D4C00231D
:1059B0000093224609490A4800F088FD204607E086
:1059C000013262803846FAF789FB002000E0024885
:1059D00003B0F0BD6019002001070002F8C3B2A1B6
:1059E000882402080807000210B5144B5B601B6096
:1059F0004FF4F071124B186800F028FA114B186040
:105A0000C8B1002313E00F4A106803EB4301CA003A
:105A100081184B600024845401F10800074A126881
:105A20005468CC608A605168086050600133132B61
:105A3000E9D9002010BD0448FCE700BF6819002028
:105A40007817002064190020001D000260B330B5F3
:105A500083B00546FAF73AFB144A5368934217D0CD
:105A60005A68196811601A6859685160002423F84F
:105A7000064C012203F8082C9C819C605B601B6033
:105A800053F8043C2B60FAF729FB204603B030BDE5
:105A9000FAF724FB064C00230093224605490648EA
:105AA00000F014FD2046F1E7044870476819002013
:105AB000031D0002F8C3B2A188240208021D0002DF
:105AC00070B582B0132824D8174B1E6800EB400035
:105AD000C5007419FAF7FAFA735D43B104F10803CB
